{
    "_format": "hh-sol-artifact-1",
    "contractName": "MedicalRecordManager",
    "sourceName": "contracts/MedicalRecordManager.sol",
    "abi": [
        {
            "inputs": [],
            "stateMutability": "nonpayable",
            "type": "constructor"
        },
        {
            "anonymous": false,
            "inputs": [
                {
                    "indexed": true,
                    "internalType": "address",
                    "name": "patient",
                    "type": "address"
                },
                {
                    "indexed": true,
                    "internalType": "uint256",
                    "name": "recordId",
                    "type": "uint256"
                }
            ],
            "name": "RecordCreated",
            "type": "event"
        },
        {
            "anonymous": false,
            "inputs": [
                {
                    "indexed": true,
                    "internalType": "address",
                    "name": "patient",
                    "type": "address"
                },
                {
                    "indexed": true,
                    "internalType": "uint256",
                    "name": "recordId",
                    "type": "uint256"
                },
                {
                    "indexed": false,
                    "internalType": "string",
                    "name": "newIpfsHash",
                    "type": "string"
                }
            ],
            "name": "RecordUpdated",
            "type": "event"
        },
        {
            "inputs": [
                {
                    "internalType": "address",
                    "name": "_admin",
                    "type": "address"
                }
            ],
            "name": "addAdmin",
            "outputs": [],
            "stateMutability": "nonpayable",
            "type": "function"
        },
        {
            "inputs": [
                {
                    "internalType": "address",
                    "name": "_doctor",
                    "type": "address"
                }
            ],
            "name": "addDoctor",
            "outputs": [],
            "stateMutability": "nonpayable",
            "type": "function"
        },
        {
            "inputs": [
                {
                    "internalType": "address",
                    "name": "_addr",
                    "type": "address"
                }
            ],
            "name": "checkRolesOf",
            "outputs": [
                {
                    "internalType": "bool",
                    "name": "",
                    "type": "bool"
                },
                {
                    "internalType": "bool",
                    "name": "",
                    "type": "bool"
                }
            ],
            "stateMutability": "view",
            "type": "function"
        },
        {
            "inputs": [
                {
                    "internalType": "address",
                    "name": "_patient",
                    "type": "address"
                },
                {
                    "internalType": "address",
                    "name": "_doctor",
                    "type": "address"
                },
                {
                    "internalType": "string",
                    "name": "_patientName",
                    "type": "string"
                },
                {
                    "internalType": "string",
                    "name": "_ipfsHash",
                    "type": "string"
                },
                {
                    "internalType": "string",
                    "name": "_orderId",
                    "type": "string"
                }
            ],
            "name": "createRecord",
            "outputs": [],
            "stateMutability": "nonpayable",
            "type": "function"
        },
        {
            "inputs": [],
            "name": "getAllRecordIds",
            "outputs": [
                {
                    "internalType": "uint256[]",
                    "name": "",
                    "type": "uint256[]"
                }
            ],
            "stateMutability": "view",
            "type": "function"
        },
        {
            "inputs": [
                {
                    "internalType": "address",
                    "name": "_patient",
                    "type": "address"
                }
            ],
            "name": "getAllRecordsOfPatient",
            "outputs": [
                {
                    "components": [
                        {
                            "internalType": "uint256",
                            "name": "recordId",
                            "type": "uint256"
                        },
                        {
                            "internalType": "string",
                            "name": "patientName",
                            "type": "string"
                        },
                        {
                            "internalType": "string",
                            "name": "ipfsHash",
                            "type": "string"
                        },
                        {
                            "internalType": "uint256",
                            "name": "timestamp",
                            "type": "uint256"
                        },
                        {
                            "internalType": "address",
                            "name": "owner",
                            "type": "address"
                        },
                        {
                            "internalType": "address",
                            "name": "doctor",
                            "type": "address"
                        }
                    ],
                    "internalType": "struct MedicalRecordManager.Record[]",
                    "name": "",
                    "type": "tuple[]"
                }
            ],
            "stateMutability": "view",
            "type": "function"
        },
        {
            "inputs": [
                {
                    "internalType": "string",
                    "name": "_orderId",
                    "type": "string"
                }
            ],
            "name": "getByOrderTableId",
            "outputs": [
                {
                    "internalType": "uint256",
                    "name": "",
                    "type": "uint256"
                },
                {
                    "internalType": "string",
                    "name": "",
                    "type": "string"
                },
                {
                    "internalType": "string",
                    "name": "",
                    "type": "string"
                },
                {
                    "internalType": "uint256",
                    "name": "",
                    "type": "uint256"
                },
                {
                    "internalType": "address",
                    "name": "",
                    "type": "address"
                },
                {
                    "internalType": "address",
                    "name": "",
                    "type": "address"
                }
            ],
            "stateMutability": "view",
            "type": "function"
        },
        {
            "inputs": [
                {
                    "internalType": "uint256",
                    "name": "_recordId",
                    "type": "uint256"
                }
            ],
            "name": "getRecord",
            "outputs": [
                {
                    "internalType": "uint256",
                    "name": "",
                    "type": "uint256"
                },
                {
                    "internalType": "string",
                    "name": "",
                    "type": "string"
                },
                {
                    "internalType": "string",
                    "name": "",
                    "type": "string"
                },
                {
                    "internalType": "uint256",
                    "name": "",
                    "type": "uint256"
                },
                {
                    "internalType": "address",
                    "name": "",
                    "type": "address"
                },
                {
                    "internalType": "address",
                    "name": "",
                    "type": "address"
                }
            ],
            "stateMutability": "view",
            "type": "function"
        },
        {
            "inputs": [
                {
                    "internalType": "address",
                    "name": "_creator",
                    "type": "address"
                }
            ],
            "name": "getRecordsCreatedBy",
            "outputs": [
                {
                    "internalType": "uint256[]",
                    "name": "",
                    "type": "uint256[]"
                }
            ],
            "stateMutability": "view",
            "type": "function"
        },
        {
            "inputs": [
                {
                    "internalType": "address",
                    "name": "_doctor",
                    "type": "address"
                }
            ],
            "name": "getRecordsCreatedByDoctor",
            "outputs": [
                {
                    "internalType": "uint256[]",
                    "name": "",
                    "type": "uint256[]"
                }
            ],
            "stateMutability": "view",
            "type": "function"
        },
        {
            "inputs": [
                {
                    "internalType": "address",
                    "name": "",
                    "type": "address"
                }
            ],
            "name": "isAdmin",
            "outputs": [
                {
                    "internalType": "bool",
                    "name": "",
                    "type": "bool"
                }
            ],
            "stateMutability": "view",
            "type": "function"
        },
        {
            "inputs": [
                {
                    "internalType": "address",
                    "name": "",
                    "type": "address"
                }
            ],
            "name": "isDoctor",
            "outputs": [
                {
                    "internalType": "bool",
                    "name": "",
                    "type": "bool"
                }
            ],
            "stateMutability": "view",
            "type": "function"
        },
        {
            "inputs": [
                {
                    "internalType": "address",
                    "name": "_doctor",
                    "type": "address"
                }
            ],
            "name": "removeDoctor",
            "outputs": [],
            "stateMutability": "nonpayable",
            "type": "function"
        },
        {
            "inputs": [
                {
                    "internalType": "string",
                    "name": "_orderId",
                    "type": "string"
                },
                {
                    "internalType": "string",
                    "name": "_newIpfsHash",
                    "type": "string"
                }
            ],
            "name": "updateByOrderTableId",
            "outputs": [],
            "stateMutability": "nonpayable",
            "type": "function"
        },
        {
            "inputs": [
                {
                    "internalType": "uint256",
                    "name": "_recordId",
                    "type": "uint256"
                },
                {
                    "internalType": "string",
                    "name": "_newIpfsHash",
                    "type": "string"
                }
            ],
            "name": "updateRecord",
            "outputs": [],
            "stateMutability": "nonpayable",
            "type": "function"
        }
    ],
    "bytecode": "0x6080806040523460335760016005553360005260076020526040600020600160ff198254161790556115b990816100398239f35b600080fdfe6080604052600436101561001257600080fd5b60003560e01c806303e9e60914610c7a5780631c63146614610c3f5780631c8f142214610bc857806324d7806c14610b895780633055c7b414610b335780634780468f14610adc57806365a970dc14610a655780637048027514610a0e57806398fc90e9146109ba578063996440c61461097b578063aa0397ff146108f2578063aa458e5c146103ed578063b56082ce1461039f578063c154935d146103185763f27762f3146100c157600080fd5b34610313576020366003190112610313576001600160a01b036100e2610dc2565b1680331480156102fb575b80156102e3575b1561028857600052600060205260406000208054906001600160401b038211610272576040519161012b60208260051b0184610d4b565b80835260208301809260005260206000206000915b83831061020157848660405191829160208301906020845251809152604083019060408160051b85010192916000905b82821061017f57505050500390f35b919360019193955060208091603f198982030185528751908151815260a06101c96101b78585015160c08786015260c0850190610cbc565b60408501518482036040860152610cbc565b92606081015160608401528680831b036080820151166080840152818780821b03910151169101529601920192018594939192610170565b6006602060019260405161021481610d30565b85548152610223858701610e8b565b8382015261023360028701610e8b565b604082015260038601546060820152848060a01b036004870154166080820152848060a01b0360058701541660a0820152815201920192019190610140565b634e487b7160e01b600052604160045260246000fd5b60405162461bcd60e51b815260206004820152602d60248201527f4e6f7420617574686f72697a656420746f20766965772074686973207061746960448201526c656e742773207265636f72647360981b6064820152608490fd5b5033600052600760205260ff604060002054166100f4565b5033600052600860205260ff604060002054166100ed565b600080fd5b346103135760003660031901126103135760405180602060065491828152019060066000527ff652222313e28459528d920b65115c16c04f3efc82aaedc97be59f3f377c0d3f9060005b818110610389576103858561037981870382610d4b565b60405191829182610dd8565b0390f35b8254845260209093019260019283019201610362565b34610313576020366003190112610313576004356001600160401b038111610313576103da6103d5610385923690600401610d6c565b611416565b9260409694969291925196879687610ce1565b346103135760a036600319011261031357610406610dc2565b6024356001600160a01b03811690819003610313576044356001600160401b0381116103135761043a903690600401610d6c565b906064356001600160401b0381116103135761045a903690600401610d6c565b926084356001600160401b0381116103135761047a903690600401610d6c565b9033600052600860205260ff60406000205416156108c05760018060a01b031692836000526000602052604060002060055491604051926104ba84610d30565b8352602083019081526040830196875260608301428152608084019187835260a08501938785528054600160401b811015610272576104fe9160018201815561108f565b9590956108aa5751855551805160018601916001600160401b03821161027257819061052a8454610e51565b601f8111610857575b50602090601f83116001146107f2576000926107e7575b50508160011b916000199060031b1c19161790555b6002840197519788516001600160401b038111610272576105808254610e51565b601f811161079f575b506020601f821160011461072f5790806005969594939260209a9b9c600092610724575b50508160011b916000199060031b1c19161790555b516003850155516004840180546001600160a01b039283166001600160a01b03199182161790915591519290930180549290931691161790553360009081526001835260409020600554610615916113ed565b600554600052600382526040600020846bffffffffffffffffffffffff60a01b8254161790556106576005549283928160405193828580945193849201610c99565b8101600481520301902055600654600160401b81101561027257600181018060065581101561070e577ff652222313e28459528d920b65115c16c04f3efc82aaedc97be59f3f377c0d3f015560009081526002602052604090206005546106bd916113ed565b60055480917f5c5e28b4245a9625d95be7ea2cd8feaa54b8bcf2cbfdc7cf4ca1c8344374f6e5600080a360001981146106f857600101600555005b634e487b7160e01b600052601160045260246000fd5b634e487b7160e01b600052603260045260246000fd5b015190508c806105ad565b601f1982169a83600052816000209b60005b81811061078757509b60019284926005999897969560209d9e9f1061076e575b505050811b0190556105c2565b015160001960f88460031b161c191690558c8080610761565b838301518e556001909d019c60209384019301610741565b826000526020600020601f830160051c810191602084106107dd575b601f0160051c01905b8181106107d15750610589565b600081556001016107c4565b90915081906107bb565b015190508b8061054a565b60008581528281209350601f198516905b81811061083f5750908460019594939210610826575b505050811b01905561055f565b015160001960f88460031b161c191690558b8080610819565b92936020600181928786015181550195019301610803565b909150836000526020600020601f840160051c810191602085106108a0575b90601f859493920160051c01905b8181106108915750610533565b60008155849350600101610884565b9091508190610876565b634e487b7160e01b600052600060045260246000fd5b60405162461bcd60e51b815260206004820152600a6024820152692737ba103237b1ba37b960b11b6044820152606490fd5b34610313576040366003190112610313576004356001600160401b03811161031357610922903690600401610d6c565b602435906001600160401b0382116103135761095e602061094a610979943690600401610d6c565b928160405193828580945193849201610c99565b81016004815203019020546109748115156113ac565b6110ab565b005b34610313576020366003190112610313576001600160a01b0361099c610dc2565b166000526008602052602060ff604060002054166040519015158152f35b34610313576020366003190112610313576109d3610dc2565b3360005260076020526109ed60ff60406000205416611374565b6001600160a01b03166000908152600860205260409020805460ff19169055005b3461031357602036600319011261031357610a27610dc2565b336000526007602052610a4160ff60406000205416611374565b6001600160a01b03166000908152600760205260409020805460ff19166001179055005b34610313576020366003190112610313576001600160a01b03610a86610dc2565b166000526001602052604060002060405190816020825491828152019160005260206000209060005b818110610ac6576103858561037981870382610d4b565b8254845260209093019260019283019201610aaf565b3461031357602036600319011261031357610af5610dc2565b336000526007602052610b0f60ff60406000205416611374565b6001600160a01b03166000908152600860205260409020805460ff19166001179055005b346103135760203660031901126103135760406001600160a01b03610b56610dc2565b1680600052600760205260ff82600020541690600052600860205260ff8260002054168251911515825215156020820152f35b34610313576020366003190112610313576001600160a01b03610baa610dc2565b166000526007602052602060ff604060002054166040519015158152f35b34610313576020366003190112610313576001600160a01b03610be9610dc2565b166000526002602052604060002060405190816020825491828152019160005260206000209060005b818110610c29576103858561037981870382610d4b565b8254845260209093019260019283019201610c12565b34610313576040366003190112610313576024356001600160401b03811161031357610c72610979913690600401610d6c565b6004356110ab565b34610313576020366003190112610313576103856103da600435610f43565b60005b838110610cac5750506000910152565b8181015183820152602001610c9c565b90602091610cd581518092818552858086019101610c99565b601f01601f1916010190565b949192610d0460a095989794610d1293885260c0602089015260c0880190610cbc565b908682036040880152610cbc565b60608501969096526000196001841b01908116608085015216910152565b60c081019081106001600160401b0382111761027257604052565b90601f801991011681019081106001600160401b0382111761027257604052565b81601f82011215610313578035906001600160401b0382116102725760405192610da0601f8401601f191660200185610d4b565b8284526020838301011161031357816000926020809301838601378301015290565b600435906001600160a01b038216820361031357565b602060408183019282815284518094520192019060005b818110610dfc5750505090565b8251845260209384019390920191600101610def565b15610e1957565b60405162461bcd60e51b815260206004820152601060248201526f149958dbdc99081b9bdd08199bdd5b9960821b6044820152606490fd5b90600182811c92168015610e81575b6020831014610e6b57565b634e487b7160e01b600052602260045260246000fd5b91607f1691610e60565b9060405191826000825492610e9f84610e51565b8084529360018116908115610f0d5750600114610ec6575b50610ec492500383610d4b565b565b90506000929192526020600020906000915b818310610ef1575050906020610ec49282010138610eb7565b6020919350806001915483858901015201910190918492610ed8565b905060209250610ec494915060ff191682840152151560051b82010138610eb7565b805182101561070e5760209160051b010190565b6000818152600360205260409020546001600160a01b0316610f66811515610e12565b6000526000602052604060002080546001600160401b0381116102725760405191610f9760208360051b0184610d4b565b818352602083019060005260206000206000915b83831061101e575050505060005b8151811015610e195782610fcd8284610f2f565b515114610fdc57600101610fb9565b90610fe79250610f2f565b518051602082015160408301516060840151608085015160a09095015193959294919390926001600160a01b039283169290911690565b6006602060019260405161103181610d30565b85548152611040858701610e8b565b8382015261105060028701610e8b565b604082015260038601546060820152848060a01b036004870154166080820152848060a01b0360058701541660a0820152815201920192019190610fab565b805482101561070e576000526006602060002091020190600090565b6000818152600360205260409020546001600160a01b03166110ce811515610e12565b80600052600060205260406000209260005b845481101561132157836110f4828761108f565b505414611103576001016110e0565b90919293611111828261108f565b50600401546001600160a01b031633148015611301575b156112bc576002611139838361108f565b500183516001600160401b038111610272576111558254610e51565b601f8111611274575b506020601f82116001146111e557926111ba92826111d596937f025dd575b14ca3dc8d0b4690c36e13aa78a22497a2f87a510d5b89e98605baed98966000916111da575b508160011b916000199060031b1c191617905561108f565b50600342910155604051918291602083526020830190610cbc565b0390a3565b9050860151386111a2565b601f1982169083600052806000209160005b81811061125c5750837f025dd575b14ca3dc8d0b4690c36e13aa78a22497a2f87a510d5b89e98605baed9896936111ba96936111d5999660019410611243575b5050811b01905561108f565b88015160001960f88460031b161c191690553880611237565b9192602060018192868c0151815501940192016111f7565b826000526020600020601f830160051c810191602084106112b2575b601f0160051c01905b8181106112a6575061115e565b60008155600101611299565b9091508190611290565b60405162461bcd60e51b815260206004820152601860248201527f4e6f7420617574686f72697a656420746f2075706461746500000000000000006044820152606490fd5b5061130c828261108f565b50600501546001600160a01b03163314611128565b60405162461bcd60e51b815260206004820152602560248201527f5265636f7264206e6f7420666f756e6420696e2070617469656e742773207265604482015264636f72647360d81b6064820152608490fd5b1561137b57565b60405162461bcd60e51b81526020600482015260096024820152682737ba1030b236b4b760b91b6044820152606490fd5b156113b357565b60405162461bcd60e51b815260206004820152601260248201527113dc99195c881251081b9bdd08199bdd5b9960721b6044820152606490fd5b805490600160401b821015610272576001820180825582101561070e5760005260206000200155565b602061142f918160405193828580945193849201610c99565b81016004815203019020546114458115156113ac565b6000818152600360205260409020546001600160a01b0316801561154a576000526000602052604060002080546001600160401b038111610272576040519161149460208360051b0184610d4b565b818352602083019060005260206000206000915b8383106114d9575050505060005b8151811015610e1957826114ca8284610f2f565b515114610fdc576001016114b6565b600660206001926040516114ec81610d30565b855481526114fb858701610e8b565b8382015261150b60028701610e8b565b604082015260038601546060820152848060a01b036004870154166080820152848060a01b0360058701541660a08201528152019201920191906114a8565b60405162461bcd60e51b815260206004820152601160248201527014185d1a595b9d081b9bdd08199bdd5b99607a1b6044820152606490fdfea2646970667358221220e61975ff324c0eab24b20c62c32445506bd3b5785c111f7f0f04d79d6810609464736f6c634300081c0033",
    "linkReferences": {},
    "deployedLinkReferences": {}
}